{
  "abi": [
    {
      "inputs": [],
      "stateMutability": "nonpayable",
      "type": "constructor"
    },
    {
      "inputs": [
        {
          "internalType": "address",
          "name": "",
          "type": "address"
        }
      ],
      "name": "TEST",
      "type": "error"
    },
    {
      "inputs": [
        {
          "internalType": "address",
          "name": "inToken",
          "type": "address"
        },
        {
          "internalType": "uint256",
          "name": "inAmount",
          "type": "uint256"
        },
        {
          "internalType": "address",
          "name": "outToken",
          "type": "address"
        },
        {
          "internalType": "uint256",
          "name": "minOutAmount",
          "type": "uint256"
        },
        {
          "internalType": "address",
          "name": "receiver",
          "type": "address"
        },
        {
          "internalType": "bytes",
          "name": "data",
          "type": "bytes"
        }
      ],
      "name": "executeTransaction",
      "outputs": [],
      "stateMutability": "nonpayable",
      "type": "function"
    },
    {
      "inputs": [
        {
          "internalType": "address",
          "name": "",
          "type": "address"
        }
      ],
      "name": "superTokensByBase",
      "outputs": [
        {
          "internalType": "address",
          "name": "",
          "type": "address"
        }
      ],
      "stateMutability": "view",
      "type": "function"
    },
    {
      "inputs": [],
      "name": "test",
      "outputs": [
        {
          "internalType": "uint256",
          "name": "",
          "type": "uint256"
        }
      ],
      "stateMutability": "view",
      "type": "function"
    }
  ],
  "bytecode": {
    "object": "0x6080604052600460005534801561001557600080fd5b504660018190036101055760016020527f984d2fa8d1487af07b5ee877a8a38f5c2a6e884ae5678c06eb67e4e93dccd24680546001600160a01b0319908116731ba8603da702602a8657980e825a6daa03dee93a179091557f28c420d41601e064fc8cc12b320362ca54019acc8f163ced66d9dc6175c0882880548216734f228bf911ed67730e4b51b1f82ac291b49053ee17905573c02aaa39b223fe8d0a0e5c4f27ead9083c756cc26000527f49e349d4f386739afdf8e55db7675b584d46c3b2a603eef62554e21dc437b5db805490911673c22bea0be9872d8b7b3933cec70ece4d53a900da17905561024a565b806089036101f25760016020527fc618dfc57a3acb49a61f0a674c8ceab79d3bd365d6db55920808d8b91372dfbf80546001600160a01b031990811673caa7349cea390f89641fe306d93591f87595dc1f179091557f8b2e538b61367ab6db116a167f81f6719b95ca851e61e8f6f696c68dfa6d619780548216731305f6b6df9dc47159d12eb7ac2804d4a33173c2179055737ceb23fd6bc0add59e62ac25578270cff1b9f6196000527f65b62dd1a7c09d4b070262dcb997d4cb1495cbd20b136309d9f06c771f83650f80549091167327e1e4e6bc79d93032abef01025811b7e4727e8517905561024a565b8061a4ec0361024a576000805260016020527fa6eef7e35abe7026729641147f7915573c7e97b47efa546f5f6e3230263bcb4980546001600160a01b03191673671425ae1f272bc6f79bec3ed5c4b00e9c6282401790555b50610bd38061025a6000396000f3fe608060405234801561001057600080fd5b50600436106100415760003560e01c80638aa06c8d14610046578063e20418ef1461008c578063f8a8fd6d146100a1575b600080fd5b61006f61005436600461084e565b6001602052600090815260409020546001600160a01b031681565b6040516001600160a01b0390911681526020015b60405180910390f35b61009f61009a3660046108e1565b6100b8565b005b6100aa60005481565b604051908152602001610083565b6020810151806000600b82900b13156101ef576001600160a01b0380891660009081526001602052604090205416806100f057600080fd5b60405163095ea7b360e01b81526001600160a01b038281166004830152602482018a90528a169063095ea7b3906044016020604051808303816000875af115801561013f573d6000803e3d6000fd5b505050506040513d601f19601f8201168201806040525081019061016391906109ab565b506040516316e7427360e21b81523360048201526024810189905260606044820152600060648201526001600160a01b03821690635b9d09cc90608401600060405180830381600087803b1580156101ba57600080fd5b505af11580156101ce573d6000803e3d6000fd5b506101e8925050506001600160a01b038216338785610402565b50506103f8565b6001600160a01b03808716600090815260016020526040902054168061021457600080fd5b6102286001600160a01b038216338761053a565b50604051636eb1769f60e11b81523360048201523060248201526000906001600160a01b0383169063dd62ed3e90604401602060405180830381865afa158015610276573d6000803e3d6000fd5b505050506040513d601f19601f8201168201806040525081019061029a91906109cd565b90508681101580156102ab57508615155b156103f5576040516323b872dd60e01b8152336004820152306024820152604481018890526001600160a01b038316906323b872dd906064016020604051808303816000875af1158015610303573d6000803e3d6000fd5b505050506040513d601f19601f8201168201806040525081019061032791906109ab565b506040516308de640f60e11b8152600481018890526001600160a01b038316906311bcc81e90602401600060405180830381600087803b15801561036a57600080fd5b505af115801561037e573d6000803e3d6000fd5b505060405163a9059cbb60e01b8152336004820152602481018a90526001600160a01b038b16925063a9059cbb91506044016020604051808303816000875af11580156103cf573d6000803e3d6000fd5b505050506040513d601f19601f820116820180604052508101906103f391906109ab565b505b50505b5050505050505050565b60008060006104108761066f565b91509150816001600160a01b03166339255d5b82836001600160a01b03166394229ecb8b8b8b8b600067ffffffffffffffff81111561045157610451610872565b6040519080825280601f01601f19166020018201604052801561047b576020820181803683370190505b50604051602401610490959493929190610a36565b60408051601f19818403018152918152602080830180516001600160e01b031660e095861b179052815160008152908101918290529286901b6001600160e01b03191690526104e59392509060248101610a7f565b6000604051808303816000875af1158015610504573d6000803e3d6000fd5b505050506040513d6000823e601f3d908101601f1916820160405261052c9190810190610abf565b506001979650505050505050565b60008060006105488661066f565b91509150816001600160a01b03166339255d5b82836001600160a01b0316634c8b181f8a8a8a600067ffffffffffffffff81111561058857610588610872565b6040519080825280601f01601f1916602001820160405280156105b2576020820181803683370190505b506040516024016105c69493929190610b36565b60408051601f19818403018152918152602080830180516001600160e01b031660e095861b179052815160008152908101918290529286901b6001600160e01b031916905261061b9392509060248101610a7f565b6000604051808303816000875af115801561063a573d6000803e3d6000fd5b505050506040513d6000823e601f3d908101601f191682016040526106629190810190610abf565b5060019695505050505050565b7f65599bf746e17a00ea62e3610586992d88101b78eec3cf380706621fb97ea837547fb969d79d88acd02d04ed7ee7d43b949e7daf093d363abcfbbc43dfdfd1ce969a546001600160a01b038116610805576001600160a01b03821661073457826001600160a01b03166320bc44256040518163ffffffff1660e01b8152600401602060405180830381865afa15801561070d573d6000803e3d6000fd5b505050506040513d601f19601f820116820180604052508101906107319190610b6a565b91505b604051635b69006f60e11b81527fa9214cc96615e0085d3bb077758db69497dc2dce3b2b1e97bc93c3d18d83efd360048201526001600160a01b0383169063b6d200de90602401602060405180830381865afa158015610798573d6000803e3d6000fd5b505050506040513d601f19601f820116820180604052508101906107bc9190610b6a565b9050817f65599bf746e17a00ea62e3610586992d88101b78eec3cf380706621fb97ea83755807fb969d79d88acd02d04ed7ee7d43b949e7daf093d363abcfbbc43dfdfd1ce969a555b6001600160a01b03821661081b5761081b610b87565b6001600160a01b03811661083157610831610b87565b915091565b6001600160a01b038116811461084b57600080fd5b50565b60006020828403121561086057600080fd5b813561086b81610836565b9392505050565b634e487b7160e01b600052604160045260246000fd5b604051601f8201601f1916810167ffffffffffffffff811182821017156108b1576108b1610872565b604052919050565b600067ffffffffffffffff8211156108d3576108d3610872565b50601f01601f191660200190565b60008060008060008060c087890312156108fa57600080fd5b863561090581610836565b955060208701359450604087013561091c81610836565b935060608701359250608087013561093381610836565b915060a087013567ffffffffffffffff81111561094f57600080fd5b8701601f8101891361096057600080fd5b803561097361096e826108b9565b610888565b8181528a602083850101111561098857600080fd5b816020840160208301376000602083830101528093505050509295509295509295565b6000602082840312156109bd57600080fd5b8151801515811461086b57600080fd5b6000602082840312156109df57600080fd5b5051919050565b60005b83811015610a015781810151838201526020016109e9565b50506000910152565b60008151808452610a228160208601602086016109e6565b601f01601f19169290920160200192915050565b6001600160a01b038681168252858116602083015284166040820152600b83900b606082015260a060808201819052600090610a7490830184610a0a565b979650505050505050565b6001600160a01b0384168152606060208201819052600090610aa390830185610a0a565b8281036040840152610ab58185610a0a565b9695505050505050565b600060208284031215610ad157600080fd5b815167ffffffffffffffff811115610ae857600080fd5b8201601f81018413610af957600080fd5b8051610b0761096e826108b9565b818152856020838501011115610b1c57600080fd5b610b2d8260208301602086016109e6565b95945050505050565b6001600160a01b038581168252848116602083015283166040820152608060608201819052600090610ab590830184610a0a565b600060208284031215610b7c57600080fd5b815161086b81610836565b634e487b7160e01b600052600160045260246000fdfea26469706673582212200b251ba7ed4b8224cbdd605066e56e9a481a8800c9afe311e42bbb779350fff864736f6c63430008130033",
    "linkReferences": {}
  },
  "methodIdentifiers": {
    "executeTransaction(address,uint256,address,uint256,address,bytes)": "e20418ef",
    "superTokensByBase(address)": "8aa06c8d",
    "test()": "f8a8fd6d"
  },
  "id": 1
}