{
  "abi": [
    {
      "inputs": [
        {
          "internalType": "contract ISwapRouter",
          "name": "_swapRouter",
          "type": "address"
        }
      ],
      "stateMutability": "nonpayable",
      "type": "constructor"
    },
    {
      "inputs": [
        {
          "internalType": "address",
          "name": "inToken",
          "type": "address"
        },
        {
          "internalType": "uint256",
          "name": "inAmount",
          "type": "uint256"
        },
        {
          "internalType": "address",
          "name": "outToken",
          "type": "address"
        },
        {
          "internalType": "uint256",
          "name": "minOutAmount",
          "type": "uint256"
        },
        {
          "internalType": "address",
          "name": "receiver",
          "type": "address"
        },
        {
          "internalType": "bytes",
          "name": "data",
          "type": "bytes"
        }
      ],
      "name": "executeTransaction",
      "outputs": [],
      "stateMutability": "nonpayable",
      "type": "function"
    },
    {
      "inputs": [],
      "name": "poolFee",
      "outputs": [
        {
          "internalType": "uint24",
          "name": "",
          "type": "uint24"
        }
      ],
      "stateMutability": "view",
      "type": "function"
    },
    {
      "inputs": [],
      "name": "swapRouter",
      "outputs": [
        {
          "internalType": "contract ISwapRouter",
          "name": "",
          "type": "address"
        }
      ],
      "stateMutability": "view",
      "type": "function"
    }
  ],
  "bytecode": {
    "object": "0x60a060405234801561001057600080fd5b506040516105a93803806105a983398101604081905261002f91610040565b6001600160a01b0316608052610070565b60006020828403121561005257600080fd5b81516001600160a01b038116811461006957600080fd5b9392505050565b60805161051261009760003960008181606d0152818160c2015261014101526105126000f3fe608060405234801561001057600080fd5b50600436106100415760003560e01c8063089fe6aa14610046578063c31c9c0714610068578063e20418ef146100a7575b600080fd5b61004f610bb881565b60405162ffffff90911681526020015b60405180910390f35b61008f7f000000000000000000000000000000000000000000000000000000000000000081565b6040516001600160a01b03909116815260200161005f565b6100ba6100b53660046102f9565b6100bc565b005b6100e7867f0000000000000000000000000000000000000000000000000000000000000000876101c3565b60408051610100810182526001600160a01b0380891682528681166020830152610bb882840152848116606083015242608083015260a0820188905260c08201869052600060e0830152915163414bf38960e01b815290917f0000000000000000000000000000000000000000000000000000000000000000169063414bf389906101769084906004016103ee565b6020604051808303816000875af1158015610195573d6000803e3d6000fd5b505050506040513d601f19601f820116820180604052508101906101b9919061046b565b5050505050505050565b604080516001600160a01b038481166024830152604480830185905283518084039091018152606490920183526020820180516001600160e01b031663095ea7b360e01b179052915160009283929087169161021f9190610484565b6000604051808303816000865af19150503d806000811461025c576040519150601f19603f3d011682016040523d82523d6000602084013e610261565b606091505b509150915081801561028b57508051158061028b57508080602001905181019061028b91906104b3565b6102c05760405162461bcd60e51b8152602060048201526002602482015261534160f01b604482015260640160405180910390fd5b5050505050565b80356001600160a01b03811681146102de57600080fd5b919050565b634e487b7160e01b600052604160045260246000fd5b60008060008060008060c0878903121561031257600080fd5b61031b876102c7565b955060208701359450610330604088016102c7565b935060608701359250610345608088016102c7565b915060a087013567ffffffffffffffff8082111561036257600080fd5b818901915089601f83011261037657600080fd5b813581811115610388576103886102e3565b604051601f8201601f19908116603f011681019083821181831017156103b0576103b06102e3565b816040528281528c60208487010111156103c957600080fd5b8260208601602083013760006020848301015280955050505050509295509295509295565b60006101008201905060018060a01b0380845116835280602085015116602084015262ffffff6040850151166040840152806060850151166060840152506080830151608083015260a083015160a083015260c083015160c083015260e083015161046460e08401826001600160a01b03169052565b5092915050565b60006020828403121561047d57600080fd5b5051919050565b6000825160005b818110156104a5576020818601810151858301520161048b565b506000920191825250919050565b6000602082840312156104c557600080fd5b815180151581146104d557600080fd5b939250505056fea264697066735822122086c1175e6e135d74c4dd5e3c252747f5ae0fabe466f5380d7301f575a25cdcd164736f6c63430008130033",
    "linkReferences": {}
  },
  "methodIdentifiers": {
    "executeTransaction(address,uint256,address,uint256,address,bytes)": "e20418ef",
    "poolFee()": "089fe6aa",
    "swapRouter()": "c31c9c07"
  },
  "id": 1
}