{
  "address": "0x31BcC8f696701d9aE715444efC728145E080d6c7",
  "abi": [
    {
      "inputs": [
        {
          "internalType": "contract ISwapRouter",
          "name": "_swapRouter",
          "type": "address"
        }
      ],
      "stateMutability": "nonpayable",
      "type": "constructor"
    },
    {
      "inputs": [
        {
          "internalType": "address",
          "name": "inToken",
          "type": "address"
        },
        {
          "internalType": "uint256",
          "name": "inAmount",
          "type": "uint256"
        },
        {
          "internalType": "address",
          "name": "outToken",
          "type": "address"
        },
        {
          "internalType": "uint256",
          "name": "minOutAmount",
          "type": "uint256"
        },
        {
          "internalType": "address",
          "name": "receiver",
          "type": "address"
        },
        {
          "internalType": "bytes",
          "name": "data",
          "type": "bytes"
        }
      ],
      "name": "executeTransaction",
      "outputs": [],
      "stateMutability": "nonpayable",
      "type": "function"
    },
    {
      "inputs": [],
      "name": "poolFee",
      "outputs": [
        {
          "internalType": "uint24",
          "name": "",
          "type": "uint24"
        }
      ],
      "stateMutability": "view",
      "type": "function"
    },
    {
      "inputs": [],
      "name": "swapRouter",
      "outputs": [
        {
          "internalType": "contract ISwapRouter",
          "name": "",
          "type": "address"
        }
      ],
      "stateMutability": "view",
      "type": "function"
    }
  ],
  "transactionHash": "0xd929c7c48376e39dfd388b5f9161097e6952970274b6c842e8217bfde820d92a",
  "args": [
    "0xE592427A0AEce92De3Edee1F18E0157C05861564"
  ],
  "numDeployments": 1,
  "solcInputHash": "16c9b968fcd0b04d354d10e62ab1359a",
  "bytecode": "0x60a060405234801561001057600080fd5b50604051610b2e380380610b2e833981810160405281019061003291906100e1565b8073ffffffffffffffffffffffffffffffffffffffff1660808173ffffffffffffffffffffffffffffffffffffffff16815250505061010e565b600080fd5b600073ffffffffffffffffffffffffffffffffffffffff82169050919050565b600061009c82610071565b9050919050565b60006100ae82610091565b9050919050565b6100be816100a3565b81146100c957600080fd5b50565b6000815190506100db816100b5565b92915050565b6000602082840312156100f7576100f661006c565b5b6000610105848285016100cc565b91505092915050565b6080516109f96101356000396000818160a60152818160ce015261019301526109f96000f3fe608060405234801561001057600080fd5b50600436106100415760003560e01c8063089fe6aa14610046578063c31c9c0714610064578063e20418ef14610082575b600080fd5b61004e61009e565b60405161005b91906103aa565b60405180910390f35b61006c6100a4565b6040516100799190610444565b60405180910390f35b61009c6004803603810190610097919061062d565b6100c8565b005b610bb881565b7f000000000000000000000000000000000000000000000000000000000000000081565b6100f3867f000000000000000000000000000000000000000000000000000000000000000087610237565b60006040518061010001604052808873ffffffffffffffffffffffffffffffffffffffff1681526020018673ffffffffffffffffffffffffffffffffffffffff168152602001610bb862ffffff1681526020018473ffffffffffffffffffffffffffffffffffffffff168152602001428152602001878152602001858152602001600073ffffffffffffffffffffffffffffffffffffffff1681525090507f000000000000000000000000000000000000000000000000000000000000000073ffffffffffffffffffffffffffffffffffffffff1663414bf389826040518263ffffffff1660e01b81526004016101ea91906107b4565b6020604051808303816000875af1158015610209573d6000803e3d6000fd5b505050506040513d601f19601f8201168201806040525081019061022d91906107e5565b5050505050505050565b6000808473ffffffffffffffffffffffffffffffffffffffff1663095ea7b360e01b858560405160240161026c929190610830565b604051602081830303815290604052907bffffffffffffffffffffffffffffffffffffffffffffffffffffffff19166020820180517bffffffffffffffffffffffffffffffffffffffffffffffffffffffff83818316178352505050506040516102d691906108ca565b6000604051808303816000865af19150503d8060008114610313576040519150601f19603f3d011682016040523d82523d6000602084013e610318565b606091505b509150915081801561034657506000815114806103455750808060200190518101906103449190610919565b5b5b610385576040517f08c379a000000000000000000000000000000000000000000000000000000000815260040161037c906109a3565b60405180910390fd5b5050505050565b600062ffffff82169050919050565b6103a48161038c565b82525050565b60006020820190506103bf600083018461039b565b92915050565b600073ffffffffffffffffffffffffffffffffffffffff82169050919050565b6000819050919050565b600061040a610405610400846103c5565b6103e5565b6103c5565b9050919050565b600061041c826103ef565b9050919050565b600061042e82610411565b9050919050565b61043e81610423565b82525050565b60006020820190506104596000830184610435565b92915050565b6000604051905090565b600080fd5b600080fd5b600061047e826103c5565b9050919050565b61048e81610473565b811461049957600080fd5b50565b6000813590506104ab81610485565b92915050565b6000819050919050565b6104c4816104b1565b81146104cf57600080fd5b50565b6000813590506104e1816104bb565b92915050565b600080fd5b600080fd5b6000601f19601f8301169050919050565b7f4e487b7100000000000000000000000000000000000000000000000000000000600052604160045260246000fd5b61053a826104f1565b810181811067ffffffffffffffff8211171561055957610558610502565b5b80604052505050565b600061056c61045f565b90506105788282610531565b919050565b600067ffffffffffffffff82111561059857610597610502565b5b6105a1826104f1565b9050602081019050919050565b82818337600083830152505050565b60006105d06105cb8461057d565b610562565b9050828152602081018484840111156105ec576105eb6104ec565b5b6105f78482856105ae565b509392505050565b600082601f830112610614576106136104e7565b5b81356106248482602086016105bd565b91505092915050565b60008060008060008060c0878903121561064a57610649610469565b5b600061065889828a0161049c565b965050602061066989828a016104d2565b955050604061067a89828a0161049c565b945050606061068b89828a016104d2565b935050608061069c89828a0161049c565b92505060a087013567ffffffffffffffff8111156106bd576106bc61046e565b5b6106c989828a016105ff565b9150509295509295509295565b6106df81610473565b82525050565b6106ee8161038c565b82525050565b6106fd816104b1565b82525050565b61070c816103c5565b82525050565b6101008201600082015161072960008501826106d6565b50602082015161073c60208501826106d6565b50604082015161074f60408501826106e5565b50606082015161076260608501826106d6565b50608082015161077560808501826106f4565b5060a082015161078860a08501826106f4565b5060c082015161079b60c08501826106f4565b5060e08201516107ae60e0850182610703565b50505050565b6000610100820190506107ca6000830184610712565b92915050565b6000815190506107df816104bb565b92915050565b6000602082840312156107fb576107fa610469565b5b6000610809848285016107d0565b91505092915050565b61081b81610473565b82525050565b61082a816104b1565b82525050565b60006040820190506108456000830185610812565b6108526020830184610821565b9392505050565b600081519050919050565b600081905092915050565b60005b8381101561088d578082015181840152602081019050610872565b60008484015250505050565b60006108a482610859565b6108ae8185610864565b93506108be81856020860161086f565b80840191505092915050565b60006108d68284610899565b915081905092915050565b60008115159050919050565b6108f6816108e1565b811461090157600080fd5b50565b600081519050610913816108ed565b92915050565b60006020828403121561092f5761092e610469565b5b600061093d84828501610904565b91505092915050565b600082825260208201905092915050565b7f5341000000000000000000000000000000000000000000000000000000000000600082015250565b600061098d600283610946565b915061099882610957565b602082019050919050565b600060208201905081810360008301526109bc81610980565b905091905056fea264697066735822122060cc85220c00478617f86bb5aa3009e53b96c7bba6b7203b3c138d610e319ce464736f6c63430008130033",
  "devdoc": {
    "kind": "dev",
    "methods": {},
    "version": 1
  },
  "userdoc": {
    "kind": "user",
    "methods": {},
    "version": 1
  },
  "storageLayout": {
    "storage": [],
    "types": null
  }
}