{
  "address": "0x75D1E4838051a0e84F3D5a5cA2f7Ca96B5D3eF01",
  "abi": [
    {
      "inputs": [
        {
          "components": [
            {
              "internalType": "address",
              "name": "smartContract",
              "type": "address"
            },
            {
              "internalType": "address",
              "name": "in_token",
              "type": "address"
            },
            {
              "internalType": "uint256",
              "name": "in_am",
              "type": "uint256"
            },
            {
              "internalType": "address",
              "name": "out_token",
              "type": "address"
            },
            {
              "internalType": "uint256",
              "name": "min_out_am",
              "type": "uint256"
            },
            {
              "internalType": "address",
              "name": "receiver",
              "type": "address"
            },
            {
              "internalType": "bytes",
              "name": "data",
              "type": "bytes"
            }
          ],
          "internalType": "struct TX_Object",
          "name": "",
          "type": "tuple"
        },
        {
          "internalType": "string",
          "name": "",
          "type": "string"
        }
      ],
      "name": "ExecutionError",
      "type": "error"
    },
    {
      "inputs": [
        {
          "components": [
            {
              "internalType": "address",
              "name": "smartContract",
              "type": "address"
            },
            {
              "internalType": "address",
              "name": "in_token",
              "type": "address"
            },
            {
              "internalType": "uint256",
              "name": "in_am",
              "type": "uint256"
            },
            {
              "internalType": "address",
              "name": "out_token",
              "type": "address"
            },
            {
              "internalType": "uint256",
              "name": "min_out_am",
              "type": "uint256"
            },
            {
              "internalType": "address",
              "name": "receiver",
              "type": "address"
            },
            {
              "internalType": "bytes",
              "name": "data",
              "type": "bytes"
            }
          ],
          "internalType": "struct TX_Object[]",
          "name": "toExecute",
          "type": "tuple[]"
        }
      ],
      "name": "executeTransactions",
      "outputs": [],
      "stateMutability": "nonpayable",
      "type": "function"
    }
  ],
  "transactionHash": "0x609c2af68a620a3d62f9848368a93252011e2b9cd211c14a0b771b63fd071337",
  "args": [],
  "numDeployments": 1,
  "solcInputHash": "16c9b968fcd0b04d354d10e62ab1359a",
  "bytecode": "0x608060405234801561001057600080fd5b50610b2d806100206000396000f3fe608060405234801561001057600080fd5b506004361061002b5760003560e01c8063e3d378aa14610030575b600080fd5b61004a60048036038101906100459190610357565b61004c565b005b60008282905003610092576040517f08c379a000000000000000000000000000000000000000000000000000000000815260040161008990610401565b60405180910390fd5b60005b828290508110156102d95760008383838181106100b5576100b4610421565b5b90506020028101906100c79190610455565b6100d09061072c565b90506000816000015173ffffffffffffffffffffffffffffffffffffffff166370a082318360a001516040518263ffffffff1660e01b8152600401610115919061074e565b602060405180830381865afa158015610132573d6000803e3d6000fd5b505050506040513d601f19601f82011682018060405250810190610156919061077e565b9050816000015173ffffffffffffffffffffffffffffffffffffffff1663e20418ef83602001518460400151856060015186608001518760a001518860c001516040518763ffffffff1660e01b81526004016101b796959493929190610839565b600060405180830381600087803b1580156101d157600080fd5b505af11580156101e5573d6000803e3d6000fd5b505050506000826000015173ffffffffffffffffffffffffffffffffffffffff166370a082318460a001516040518263ffffffff1660e01b815260040161022c919061074e565b602060405180830381865afa158015610249573d6000803e3d6000fd5b505050506040513d601f19601f8201168201806040525081019061026d919061077e565b90508260800151828261028091906108d0565b10156102c357826040517f82fee6180000000000000000000000000000000000000000000000000000000081526004016102ba9190610a7a565b60405180910390fd5b50505080806102d190610aaf565b915050610095565b505050565b6000604051905090565b600080fd5b600080fd5b600080fd5b600080fd5b600080fd5b60008083601f840112610317576103166102f2565b5b8235905067ffffffffffffffff811115610334576103336102f7565b5b6020830191508360208202830111156103505761034f6102fc565b5b9250929050565b6000806020838503121561036e5761036d6102e8565b5b600083013567ffffffffffffffff81111561038c5761038b6102ed565b5b61039885828601610301565b92509250509250929050565b600082825260208201905092915050565b7f43616e6e6f742063616c6c207769746820616e20656d70747920617272617900600082015250565b60006103eb601f836103a4565b91506103f6826103b5565b602082019050919050565b6000602082019050818103600083015261041a816103de565b9050919050565b7f4e487b7100000000000000000000000000000000000000000000000000000000600052603260045260246000fd5b600080fd5b60008235600160e00383360303811261047157610470610450565b5b80830191505092915050565b600080fd5b6000601f19601f8301169050919050565b7f4e487b7100000000000000000000000000000000000000000000000000000000600052604160045260246000fd5b6104cb82610482565b810181811067ffffffffffffffff821117156104ea576104e9610493565b5b80604052505050565b60006104fd6102de565b905061050982826104c2565b919050565b600080fd5b600073ffffffffffffffffffffffffffffffffffffffff82169050919050565b600061053e82610513565b9050919050565b61054e81610533565b811461055957600080fd5b50565b60008135905061056b81610545565b92915050565b6000819050919050565b61058481610571565b811461058f57600080fd5b50565b6000813590506105a18161057b565b92915050565b600080fd5b600067ffffffffffffffff8211156105c7576105c6610493565b5b6105d082610482565b9050602081019050919050565b82818337600083830152505050565b60006105ff6105fa846105ac565b6104f3565b90508281526020810184848401111561061b5761061a6105a7565b5b6106268482856105dd565b509392505050565b600082601f830112610643576106426102f2565b5b81356106538482602086016105ec565b91505092915050565b600060e082840312156106725761067161047d565b5b61067c60e06104f3565b9050600061068c8482850161055c565b60008301525060206106a08482850161055c565b60208301525060406106b484828501610592565b60408301525060606106c88482850161055c565b60608301525060806106dc84828501610592565b60808301525060a06106f08482850161055c565b60a08301525060c082013567ffffffffffffffff8111156107145761071361050e565b5b6107208482850161062e565b60c08301525092915050565b6000610738368361065c565b9050919050565b61074881610533565b82525050565b6000602082019050610763600083018461073f565b92915050565b6000815190506107788161057b565b92915050565b600060208284031215610794576107936102e8565b5b60006107a284828501610769565b91505092915050565b6107b481610571565b82525050565b600081519050919050565b600082825260208201905092915050565b60005b838110156107f45780820151818401526020810190506107d9565b60008484015250505050565b600061080b826107ba565b61081581856107c5565b93506108258185602086016107d6565b61082e81610482565b840191505092915050565b600060c08201905061084e600083018961073f565b61085b60208301886107ab565b610868604083018761073f565b61087560608301866107ab565b610882608083018561073f565b81810360a08301526108948184610800565b9050979650505050505050565b7f4e487b7100000000000000000000000000000000000000000000000000000000600052601160045260246000fd5b60006108db82610571565b91506108e683610571565b92508282039050818111156108fe576108fd6108a1565b5b92915050565b61090d81610533565b82525050565b61091c81610571565b82525050565b600082825260208201905092915050565b600061093e826107ba565b6109488185610922565b93506109588185602086016107d6565b61096181610482565b840191505092915050565b600060e0830160008301516109846000860182610904565b5060208301516109976020860182610904565b5060408301516109aa6040860182610913565b5060608301516109bd6060860182610904565b5060808301516109d06080860182610913565b5060a08301516109e360a0860182610904565b5060c083015184820360c08601526109fb8282610933565b9150508091505092915050565b7f496d706c656d656e746174696f6e206661696c656420746f2072657475726e2060008201527f612073756666696369656e7420616d6f756e7400000000000000000000000000602082015250565b6000610a646033836103a4565b9150610a6f82610a08565b604082019050919050565b60006040820190508181036000830152610a94818461096c565b90508181036020830152610aa781610a57565b905092915050565b6000610aba82610571565b91507fffffffffffffffffffffffffffffffffffffffffffffffffffffffffffffffff8203610aec57610aeb6108a1565b5b60018201905091905056fea264697066735822122071ebed1e4481ada8244a29439083972a37eda2bd720dbbae645d49de6ef6559f64736f6c63430008130033",
  "devdoc": {
    "kind": "dev",
    "methods": {},
    "version": 1
  },
  "userdoc": {
    "kind": "user",
    "methods": {},
    "version": 1
  },
  "storageLayout": {
    "storage": [],
    "types": null
  }
}