{
  "abi": [
    {
      "inputs": [
        {
          "components": [
            {
              "internalType": "address",
              "name": "smartContract",
              "type": "address"
            },
            {
              "internalType": "address",
              "name": "in_token",
              "type": "address"
            },
            {
              "internalType": "uint256",
              "name": "in_am",
              "type": "uint256"
            },
            {
              "internalType": "address",
              "name": "out_token",
              "type": "address"
            },
            {
              "internalType": "uint256",
              "name": "min_out_am",
              "type": "uint256"
            },
            {
              "internalType": "address",
              "name": "receiver",
              "type": "address"
            },
            {
              "internalType": "bytes",
              "name": "data",
              "type": "bytes"
            }
          ],
          "internalType": "struct TX_Object",
          "name": "",
          "type": "tuple"
        },
        {
          "internalType": "string",
          "name": "",
          "type": "string"
        }
      ],
      "name": "ExecutionError",
      "type": "error"
    },
    {
      "inputs": [
        {
          "components": [
            {
              "internalType": "address",
              "name": "smartContract",
              "type": "address"
            },
            {
              "internalType": "address",
              "name": "in_token",
              "type": "address"
            },
            {
              "internalType": "uint256",
              "name": "in_am",
              "type": "uint256"
            },
            {
              "internalType": "address",
              "name": "out_token",
              "type": "address"
            },
            {
              "internalType": "uint256",
              "name": "min_out_am",
              "type": "uint256"
            },
            {
              "internalType": "address",
              "name": "receiver",
              "type": "address"
            },
            {
              "internalType": "bytes",
              "name": "data",
              "type": "bytes"
            }
          ],
          "internalType": "struct TX_Object[]",
          "name": "toExecute",
          "type": "tuple[]"
        }
      ],
      "name": "executeTransactions",
      "outputs": [],
      "stateMutability": "nonpayable",
      "type": "function"
    }
  ],
  "bytecode": {
    "object": "0x608060405234801561001057600080fd5b506106c8806100206000396000f3fe608060405234801561001057600080fd5b506004361061002b5760003560e01c8063e3d378aa14610030575b600080fd5b61004361003e366004610291565b610045565b005b600081900361009b5760405162461bcd60e51b815260206004820152601f60248201527f43616e6e6f742063616c6c207769746820616e20656d7074792061727261790060448201526064015b60405180910390fd5b60005b8181101561028c5760008383838181106100ba576100ba610306565b90506020028101906100cc919061031c565b6100d590610424565b805160a08201516040516370a0823160e01b81526001600160a01b0391821660048201529293506000929116906370a0823190602401602060405180830381865afa158015610128573d6000803e3d6000fd5b505050506040513d601f19601f8201168201806040525081019061014c91906104c2565b825160208401516040808601516060870151608088015160a089015160c08a0151945163e20418ef60e01b81529798506001600160a01b039096169663e20418ef9661019d96959091600401610521565b600060405180830381600087803b1580156101b757600080fd5b505af11580156101cb573d6000803e3d6000fd5b5050835160a08501516040516370a0823160e01b81526001600160a01b03918216600482015260009450911691506370a0823190602401602060405180830381865afa15801561021f573d6000803e3d6000fd5b505050506040513d601f19601f8201168201806040525081019061024391906104c2565b60808401519091506102558383610585565b1015610276578260405163105fdcc360e31b8152600401610092919061059e565b505050808061028490610679565b91505061009e565b505050565b600080602083850312156102a457600080fd5b823567ffffffffffffffff808211156102bc57600080fd5b818501915085601f8301126102d057600080fd5b8135818111156102df57600080fd5b8660208260051b85010111156102f457600080fd5b60209290920196919550909350505050565b634e487b7160e01b600052603260045260246000fd5b6000823560de1983360301811261033257600080fd5b9190910192915050565b634e487b7160e01b600052604160045260246000fd5b60405160e0810167ffffffffffffffff811182821017156103755761037561033c565b60405290565b80356001600160a01b038116811461039257600080fd5b919050565b600082601f8301126103a857600080fd5b813567ffffffffffffffff808211156103c3576103c361033c565b604051601f8301601f19908116603f011681019082821181831017156103eb576103eb61033c565b8160405283815286602085880101111561040457600080fd5b836020870160208301376000602085830101528094505050505092915050565b600060e0823603121561043657600080fd5b61043e610352565b6104478361037b565b81526104556020840161037b565b6020820152604083013560408201526104706060840161037b565b60608201526080830135608082015261048b60a0840161037b565b60a082015260c083013567ffffffffffffffff8111156104aa57600080fd5b6104b636828601610397565b60c08301525092915050565b6000602082840312156104d457600080fd5b5051919050565b6000815180845260005b81811015610501576020818501810151868301820152016104e5565b506000602082860101526020601f19601f83011685010191505092915050565b6001600160a01b038781168252602082018790528581166040830152606082018590528316608082015260c060a08201819052600090610563908301846104db565b98975050505050505050565b634e487b7160e01b600052601160045260246000fd5b818103818111156105985761059861056f565b92915050565b60408152600060018060a01b03808451166040840152806020850151166060840152604084015160808401528060608501511660a084015250608083015160c083015260a08301516105fb60e08401826001600160a01b03169052565b5060c083015160e06101008401526106176101208401826104db565b9050828103602084015261067181603381527f496d706c656d656e746174696f6e206661696c656420746f2072657475726e2060208201527218481cdd59999a58da595b9d08185b5bdd5b9d606a1b604082015260600190565b949350505050565b60006001820161068b5761068b61056f565b506001019056fea26469706673582212202e365f7653776ab9cfd50221ee1893ff455fcce88dabbb94d2111f840c947b8a64736f6c63430008130033",
    "linkReferences": {}
  },
  "methodIdentifiers": {
    "executeTransactions((address,address,uint256,address,uint256,address,bytes)[])": "e3d378aa"
  },
  "id": 1
}